{
  "_format": "hh-sol-artifact-1",
  "contractName": "ExamRegistry",
  "sourceName": "contracts/ExamRegistry.sol",
  "abi": [
    {
      "anonymous": false,
      "inputs": [
        {
          "indexed": true,
          "internalType": "address",
          "name": "examCenter",
          "type": "address"
        },
        {
          "indexed": false,
          "internalType": "uint256",
          "name": "timestamp",
          "type": "uint256"
        }
      ],
      "name": "ExamCenterRegistered",
      "type": "event"
    },
    {
      "anonymous": false,
      "inputs": [
        {
          "indexed": true,
          "internalType": "uint256",
          "name": "paperId",
          "type": "uint256"
        },
        {
          "indexed": false,
          "internalType": "uint256",
          "name": "unlockTimestamp",
          "type": "uint256"
        },
        {
          "indexed": false,
          "internalType": "string",
          "name": "roomNumber",
          "type": "string"
        },
        {
          "indexed": true,
          "internalType": "address",
          "name": "authority",
          "type": "address"
        }
      ],
      "name": "PaperScheduled",
      "type": "event"
    },
    {
      "anonymous": false,
      "inputs": [
        {
          "indexed": true,
          "internalType": "uint256",
          "name": "paperId",
          "type": "uint256"
        },
        {
          "indexed": false,
          "internalType": "string",
          "name": "roomNumber",
          "type": "string"
        },
        {
          "indexed": false,
          "internalType": "uint256",
          "name": "timestamp",
          "type": "uint256"
        }
      ],
      "name": "PaperUnlocked",
      "type": "event"
    },
    {
      "anonymous": false,
      "inputs": [
        {
          "indexed": true,
          "internalType": "uint256",
          "name": "paperId",
          "type": "uint256"
        },
        {
          "indexed": false,
          "internalType": "string",
          "name": "examName",
          "type": "string"
        },
        {
          "indexed": true,
          "internalType": "address",
          "name": "teacher",
          "type": "address"
        },
        {
          "indexed": false,
          "internalType": "uint256",
          "name": "timestamp",
          "type": "uint256"
        }
      ],
      "name": "PaperUploaded",
      "type": "event"
    },
    {
      "inputs": [
        {
          "internalType": "address",
          "name": "",
          "type": "address"
        }
      ],
      "name": "examCenterPublicKeys",
      "outputs": [
        {
          "internalType": "bytes",
          "name": "",
          "type": "bytes"
        }
      ],
      "stateMutability": "view",
      "type": "function"
    },
    {
      "inputs": [
        {
          "internalType": "address",
          "name": "_examCenter",
          "type": "address"
        }
      ],
      "name": "getExamCenterPublicKey",
      "outputs": [
        {
          "internalType": "bytes",
          "name": "",
          "type": "bytes"
        }
      ],
      "stateMutability": "view",
      "type": "function"
    },
    {
      "inputs": [
        {
          "internalType": "uint256",
          "name": "_paperId",
          "type": "uint256"
        }
      ],
      "name": "getPaper",
      "outputs": [
        {
          "components": [
            {
              "internalType": "string",
              "name": "examName",
              "type": "string"
            },
            {
              "internalType": "string",
              "name": "subject",
              "type": "string"
            },
            {
              "internalType": "address",
              "name": "teacher",
              "type": "address"
            },
            {
              "internalType": "string[]",
              "name": "ipfsCIDs",
              "type": "string[]"
            },
            {
              "internalType": "bytes",
              "name": "encryptedKey",
              "type": "bytes"
            },
            {
              "internalType": "uint256",
              "name": "uploadTimestamp",
              "type": "uint256"
            },
            {
              "internalType": "uint256",
              "name": "unlockTimestamp",
              "type": "uint256"
            },
            {
              "internalType": "string",
              "name": "roomNumber",
              "type": "string"
            },
            {
              "internalType": "bool",
              "name": "isScheduled",
              "type": "bool"
            },
            {
              "internalType": "bool",
              "name": "isUnlocked",
              "type": "bool"
            },
            {
              "internalType": "address",
              "name": "authority",
              "type": "address"
            }
          ],
          "internalType": "struct ExamRegistry.Paper",
          "name": "",
          "type": "tuple"
        }
      ],
      "stateMutability": "view",
      "type": "function"
    },
    {
      "inputs": [
        {
          "internalType": "uint256",
          "name": "_paperId",
          "type": "uint256"
        }
      ],
      "name": "getPaperCIDs",
      "outputs": [
        {
          "internalType": "string[]",
          "name": "",
          "type": "string[]"
        }
      ],
      "stateMutability": "view",
      "type": "function"
    },
    {
      "inputs": [
        {
          "internalType": "uint256",
          "name": "_paperId",
          "type": "uint256"
        }
      ],
      "name": "isPaperUnlocked",
      "outputs": [
        {
          "internalType": "bool",
          "name": "",
          "type": "bool"
        }
      ],
      "stateMutability": "view",
      "type": "function"
    },
    {
      "inputs": [],
      "name": "paperCount",
      "outputs": [
        {
          "internalType": "uint256",
          "name": "",
          "type": "uint256"
        }
      ],
      "stateMutability": "view",
      "type": "function"
    },
    {
      "inputs": [
        {
          "internalType": "uint256",
          "name": "",
          "type": "uint256"
        }
      ],
      "name": "papers",
      "outputs": [
        {
          "internalType": "string",
          "name": "examName",
          "type": "string"
        },
        {
          "internalType": "string",
          "name": "subject",
          "type": "string"
        },
        {
          "internalType": "address",
          "name": "teacher",
          "type": "address"
        },
        {
          "internalType": "bytes",
          "name": "encryptedKey",
          "type": "bytes"
        },
        {
          "internalType": "uint256",
          "name": "uploadTimestamp",
          "type": "uint256"
        },
        {
          "internalType": "uint256",
          "name": "unlockTimestamp",
          "type": "uint256"
        },
        {
          "internalType": "string",
          "name": "roomNumber",
          "type": "string"
        },
        {
          "internalType": "bool",
          "name": "isScheduled",
          "type": "bool"
        },
        {
          "internalType": "bool",
          "name": "isUnlocked",
          "type": "bool"
        },
        {
          "internalType": "address",
          "name": "authority",
          "type": "address"
        }
      ],
      "stateMutability": "view",
      "type": "function"
    },
    {
      "inputs": [
        {
          "internalType": "bytes",
          "name": "_publicKey",
          "type": "bytes"
        }
      ],
      "name": "registerExamCenter",
      "outputs": [],
      "stateMutability": "nonpayable",
      "type": "function"
    },
    {
      "inputs": [
        {
          "internalType": "uint256",
          "name": "_paperId",
          "type": "uint256"
        },
        {
          "internalType": "uint256",
          "name": "_unlockTimestamp",
          "type": "uint256"
        },
        {
          "internalType": "string",
          "name": "_roomNumber",
          "type": "string"
        }
      ],
      "name": "scheduleExam",
      "outputs": [],
      "stateMutability": "nonpayable",
      "type": "function"
    },
    {
      "inputs": [
        {
          "internalType": "uint256",
          "name": "_paperId",
          "type": "uint256"
        }
      ],
      "name": "unlockPaper",
      "outputs": [],
      "stateMutability": "nonpayable",
      "type": "function"
    },
    {
      "inputs": [
        {
          "internalType": "string",
          "name": "_examName",
          "type": "string"
        },
        {
          "internalType": "string",
          "name": "_subject",
          "type": "string"
        },
        {
          "internalType": "string[]",
          "name": "_ipfsCIDs",
          "type": "string[]"
        },
        {
          "internalType": "bytes",
          "name": "_encryptedKey",
          "type": "bytes"
        }
      ],
      "name": "uploadPaper",
      "outputs": [
        {
          "internalType": "uint256",
          "name": "",
          "type": "uint256"
        }
      ],
      "stateMutability": "nonpayable",
      "type": "function"
    }
  ],
  "bytecode": "0x608060405234801561001057600080fd5b50612ba7806100206000396000f3fe608060405234801561001057600080fd5b50600436106100a95760003560e01c80635e775a27116100715780635e775a271461017657806377298bd3146101af57806387df2072146101df578063a56c2cb9146101fb578063b724af4014610219578063e38c97a114610249576100a9565b806307993f04146100ae5780631cdbbff9146100de5780632460cf76146100fa57806337b747611461011657806353b54fd914610146575b600080fd5b6100c860048036038101906100c391906116ae565b610279565b6040516100d591906119f8565b60405180910390f35b6100f860048036038101906100f39190611b4f565b610710565b005b610114600480360381019061010f91906116ae565b610923565b005b610130600480360381019061012b9190611bea565b610ad4565b60405161013d9190611c61565b60405180910390f35b610160600480360381019061015b9190611bea565b610ba5565b60405161016d9190611c61565b60405180910390f35b610190600480360381019061018b91906116ae565b610c45565b6040516101a69a99989796959493929190611cfa565b60405180910390f35b6101c960048036038101906101c491906116ae565b610f13565b6040516101d69190611e38565b60405180910390f35b6101f960048036038101906101f49190611efb565b611054565b005b610203611136565b6040516102109190611f44565b60405180910390f35b610233600480360381019061022e9190612045565b61113c565b6040516102409190611f44565b60405180910390f35b610263600480360381019061025e91906116ae565b611481565b604051610270919061211c565b60405180910390f35b610281611500565b8160008111801561029457506001548111155b6102d3576040517f08c379a00000000000000000000000000000000000000000000000000000000081526004016102ca90612183565b60405180910390fd5b60008084815260200190815260200160002060405180610160016040529081600082018054610301906121d2565b80601f016020809104026020016040519081016040528092919081815260200182805461032d906121d2565b801561037a5780601f1061034f5761010080835404028352916020019161037a565b820191906000526020600020905b81548152906001019060200180831161035d57829003601f168201915b50505050508152602001600182018054610393906121d2565b80601f01602080910402602001604051908101604052809291908181526020018280546103bf906121d2565b801561040c5780601f106103e15761010080835404028352916020019161040c565b820191906000526020600020905b8154815290600101906020018083116103ef57829003601f168201915b505050505081526020016002820160009054906101000a900473ffffffffffffffffffffffffffffffffffffffff1673ffffffffffffffffffffffffffffffffffffffff1673ffffffffffffffffffffffffffffffffffffffff16815260200160038201805480602002602001604051908101604052809291908181526020016000905b8282101561053c5783829060005260206000200180546104af906121d2565b80601f01602080910402602001604051908101604052809291908181526020018280546104db906121d2565b80156105285780601f106104fd57610100808354040283529160200191610528565b820191906000526020600020905b81548152906001019060200180831161050b57829003601f168201915b505050505081526020019060010190610490565b505050508152602001600482018054610554906121d2565b80601f0160208091040260200160405190810160405280929190818152602001828054610580906121d2565b80156105cd5780601f106105a2576101008083540402835291602001916105cd565b820191906000526020600020905b8154815290600101906020018083116105b057829003601f168201915b5050505050815260200160058201548152602001600682015481526020016007820180546105fa906121d2565b80601f0160208091040260200160405190810160405280929190818152602001828054610626906121d2565b80156106735780601f1061064857610100808354040283529160200191610673565b820191906000526020600020905b81548152906001019060200180831161065657829003601f168201915b505050505081526020016008820160009054906101000a900460ff161515151581526020016008820160019054906101000a900460ff161515151581526020016008820160029054906101000a900473ffffffffffffffffffffffffffffffffffffffff1673ffffffffffffffffffffffffffffffffffffffff1673ffffffffffffffffffffffffffffffffffffffff1681525050915050919050565b8260008111801561072357506001548111155b610762576040517f08c379a000000000000000000000000000000000000000000000000000000000815260040161075990612183565b60405180910390fd5b600080600086815260200190815260200160002090508060080160009054906101000a900460ff16156107ca576040517f08c379a00000000000000000000000000000000000000000000000000000000081526004016107c19061224f565b60405180910390fd5b42841161080c576040517f08c379a0000000000000000000000000000000000000000000000000000000008152600401610803906122bb565b60405180910390fd5b6000835111610850576040517f08c379a000000000000000000000000000000000000000000000000000000000815260040161084790612327565b60405180910390fd5b8381600601819055508281600701908161086a91906124f3565b5060018160080160006101000a81548160ff021916908315150217905550338160080160026101000a81548173ffffffffffffffffffffffffffffffffffffffff021916908373ffffffffffffffffffffffffffffffffffffffff1602179055503373ffffffffffffffffffffffffffffffffffffffff16857f2af984da4af83264cadaa9a5171a82a4ddbee77948b4e384d74b3f33fe50cd1686866040516109149291906125c5565b60405180910390a35050505050565b8060008111801561093657506001548111155b610975576040517f08c379a000000000000000000000000000000000000000000000000000000000815260040161096c90612183565b60405180910390fd5b600080600084815260200190815260200160002090508060080160009054906101000a900460ff166109dc576040517f08c379a00000000000000000000000000000000000000000000000000000000081526004016109d390612641565b60405180910390fd5b8060080160019054906101000a900460ff1615610a2e576040517f08c379a0000000000000000000000000000000000000000000000000000000008152600401610a25906126ad565b60405180910390fd5b8060060154421015610a75576040517f08c379a0000000000000000000000000000000000000000000000000000000008152600401610a6c90612719565b60405180910390fd5b60018160080160016101000a81548160ff021916908315150217905550827f48ca85f36ccec9377c9a65d8e32468a31a00288407f5bbeaef28b9d1be7cae528260070142604051610ac79291906127bd565b60405180910390a2505050565b6060600260008373ffffffffffffffffffffffffffffffffffffffff1673ffffffffffffffffffffffffffffffffffffffff1681526020019081526020016000208054610b20906121d2565b80601f0160208091040260200160405190810160405280929190818152602001828054610b4c906121d2565b8015610b995780601f10610b6e57610100808354040283529160200191610b99565b820191906000526020600020905b815481529060010190602001808311610b7c57829003601f168201915b50505050509050919050565b60026020528060005260406000206000915090508054610bc4906121d2565b80601f0160208091040260200160405190810160405280929190818152602001828054610bf0906121d2565b8015610c3d5780601f10610c1257610100808354040283529160200191610c3d565b820191906000526020600020905b815481529060010190602001808311610c2057829003601f168201915b505050505081565b6000602052806000526040600020600091509050806000018054610c68906121d2565b80601f0160208091040260200160405190810160405280929190818152602001828054610c94906121d2565b8015610ce15780601f10610cb657610100808354040283529160200191610ce1565b820191906000526020600020905b815481529060010190602001808311610cc457829003601f168201915b505050505090806001018054610cf6906121d2565b80601f0160208091040260200160405190810160405280929190818152602001828054610d22906121d2565b8015610d6f5780601f10610d4457610100808354040283529160200191610d6f565b820191906000526020600020905b815481529060010190602001808311610d5257829003601f168201915b5050505050908060020160009054906101000a900473ffffffffffffffffffffffffffffffffffffffff1690806004018054610daa906121d2565b80601f0160208091040260200160405190810160405280929190818152602001828054610dd6906121d2565b8015610e235780601f10610df857610100808354040283529160200191610e23565b820191906000526020600020905b815481529060010190602001808311610e0657829003601f168201915b505050505090806005015490806006015490806007018054610e44906121d2565b80601f0160208091040260200160405190810160405280929190818152602001828054610e70906121d2565b8015610ebd5780601f10610e9257610100808354040283529160200191610ebd565b820191906000526020600020905b815481529060010190602001808311610ea057829003601f168201915b5050505050908060080160009054906101000a900460ff16908060080160019054906101000a900460ff16908060080160029054906101000a900473ffffffffffffffffffffffffffffffffffffffff1690508a565b606081600081118015610f2857506001548111155b610f67576040517f08c379a0000000000000000000000000000000000000000000000000000000008152600401610f5e90612183565b60405180910390fd5b600080848152602001908152602001600020600301805480602002602001604051908101604052809291908181526020016000905b82821015611048578382906000526020600020018054610fbb906121d2565b80601f0160208091040260200160405190810160405280929190818152602001828054610fe7906121d2565b80156110345780601f1061100957610100808354040283529160200191611034565b820191906000526020600020905b81548152906001019060200180831161101757829003601f168201915b505050505081526020019060010190610f9c565b50505050915050919050565b6000815111611098576040517f08c379a000000000000000000000000000000000000000000000000000000000815260040161108f90612839565b60405180910390fd5b80600260003373ffffffffffffffffffffffffffffffffffffffff1673ffffffffffffffffffffffffffffffffffffffff16815260200190815260200160002090816110e491906128b4565b503373ffffffffffffffffffffffffffffffffffffffff167ffeba361da735cb0509322625c9eb26d803dea44b2eb5d72233da221e01b994ed4260405161112b9190611f44565b60405180910390a250565b60015481565b600080855111611181576040517f08c379a0000000000000000000000000000000000000000000000000000000008152600401611178906129d2565b60405180910390fd5b60008351116111c5576040517f08c379a00000000000000000000000000000000000000000000000000000000081526004016111bc90612a3e565b60405180910390fd5b6000825111611209576040517f08c379a000000000000000000000000000000000000000000000000000000000815260040161120090612aaa565b60405180910390fd5b6001600081548092919061121c90612af9565b91905055506040518061016001604052808681526020018581526020013373ffffffffffffffffffffffffffffffffffffffff16815260200184815260200183815260200142815260200160008152602001604051806020016040528060008152508152602001600015158152602001600015158152602001600073ffffffffffffffffffffffffffffffffffffffff16815250600080600154815260200190815260200160002060008201518160000190816112d991906124f3565b5060208201518160010190816112ef91906124f3565b5060408201518160020160006101000a81548173ffffffffffffffffffffffffffffffffffffffff021916908373ffffffffffffffffffffffffffffffffffffffff160217905550606082015181600301908051906020019061135392919061158a565b50608082015181600401908161136991906128b4565b5060a0820151816005015560c0820151816006015560e082015181600701908161139391906124f3565b506101008201518160080160006101000a81548160ff0219169083151502179055506101208201518160080160016101000a81548160ff0219169083151502179055506101408201518160080160026101000a81548173ffffffffffffffffffffffffffffffffffffffff021916908373ffffffffffffffffffffffffffffffffffffffff1602179055509050503373ffffffffffffffffffffffffffffffffffffffff166001547f3a313d0dfd0bc592b829a89a6eae8c1deecff9f3ab369490337836e883f90be5874260405161146c929190612b41565b60405180910390a36001549050949350505050565b60008160008111801561149657506001548111155b6114d5576040517f08c379a00000000000000000000000000000000000000000000000000000000081526004016114cc90612183565b60405180910390fd5b60008084815260200190815260200160002060080160019054906101000a900460ff16915050919050565b6040518061016001604052806060815260200160608152602001600073ffffffffffffffffffffffffffffffffffffffff1681526020016060815260200160608152602001600081526020016000815260200160608152602001600015158152602001600015158152602001600073ffffffffffffffffffffffffffffffffffffffff1681525090565b8280548282559060005260206000209081019282156115d2579160200282015b828111156115d15782518290816115c191906124f3565b50916020019190600101906115aa565b5b5090506115df91906115e3565b5090565b5b8082111561160357600081816115fa9190611607565b506001016115e4565b5090565b508054611613906121d2565b6000825580601f106116255750611644565b601f0160209004906000526020600020908101906116439190611647565b5b50565b5b80821115611660576000816000905550600101611648565b5090565b6000604051905090565b600080fd5b600080fd5b6000819050919050565b61168b81611678565b811461169657600080fd5b50565b6000813590506116a881611682565b92915050565b6000602082840312156116c4576116c361166e565b5b60006116d284828501611699565b91505092915050565b600081519050919050565b600082825260208201905092915050565b60005b838110156117155780820151818401526020810190506116fa565b60008484015250505050565b6000601f19601f8301169050919050565b600061173d826116db565b61174781856116e6565b93506117578185602086016116f7565b61176081611721565b840191505092915050565b600073ffffffffffffffffffffffffffffffffffffffff82169050919050565b60006117968261176b565b9050919050565b6117a68161178b565b82525050565b600081519050919050565b600082825260208201905092915050565b6000819050602082019050919050565b60006117e48383611732565b905092915050565b6000602082019050919050565b6000611804826117ac565b61180e81856117b7565b935083602082028501611820856117c8565b8060005b8581101561185c578484038952815161183d85826117d8565b9450611848836117ec565b925060208a01995050600181019050611824565b50829750879550505050505092915050565b600081519050919050565b600082825260208201905092915050565b60006118958261186e565b61189f8185611879565b93506118af8185602086016116f7565b6118b881611721565b840191505092915050565b6118cc81611678565b82525050565b60008115159050919050565b6118e7816118d2565b82525050565b600061016083016000830151848203600086015261190b8282611732565b915050602083015184820360208601526119258282611732565b915050604083015161193a604086018261179d565b506060830151848203606086015261195282826117f9565b9150506080830151848203608086015261196c828261188a565b91505060a083015161198160a08601826118c3565b5060c083015161199460c08601826118c3565b5060e083015184820360e08601526119ac8282611732565b9150506101008301516119c36101008601826118de565b506101208301516119d86101208601826118de565b506101408301516119ed61014086018261179d565b508091505092915050565b60006020820190508181036000830152611a1281846118ed565b905092915050565b600080fd5b600080fd5b7f4e487b7100000000000000000000000000000000000000000000000000000000600052604160045260246000fd5b611a5c82611721565b810181811067ffffffffffffffff82111715611a7b57611a7a611a24565b5b80604052505050565b6000611a8e611664565b9050611a9a8282611a53565b919050565b600067ffffffffffffffff821115611aba57611ab9611a24565b5b611ac382611721565b9050602081019050919050565b82818337600083830152505050565b6000611af2611aed84611a9f565b611a84565b905082815260208101848484011115611b0e57611b0d611a1f565b5b611b19848285611ad0565b509392505050565b600082601f830112611b3657611b35611a1a565b5b8135611b46848260208601611adf565b91505092915050565b600080600060608486031215611b6857611b6761166e565b5b6000611b7686828701611699565b9350506020611b8786828701611699565b925050604084013567ffffffffffffffff811115611ba857611ba7611673565b5b611bb486828701611b21565b9150509250925092565b611bc78161178b565b8114611bd257600080fd5b50565b600081359050611be481611bbe565b92915050565b600060208284031215611c0057611bff61166e565b5b6000611c0e84828501611bd5565b91505092915050565b600082825260208201905092915050565b6000611c338261186e565b611c3d8185611c17565b9350611c4d8185602086016116f7565b611c5681611721565b840191505092915050565b60006020820190508181036000830152611c7b8184611c28565b905092915050565b600082825260208201905092915050565b6000611c9f826116db565b611ca98185611c83565b9350611cb98185602086016116f7565b611cc281611721565b840191505092915050565b611cd68161178b565b82525050565b611ce581611678565b82525050565b611cf4816118d2565b82525050565b6000610140820190508181036000830152611d15818d611c94565b90508181036020830152611d29818c611c94565b9050611d38604083018b611ccd565b8181036060830152611d4a818a611c28565b9050611d596080830189611cdc565b611d6660a0830188611cdc565b81810360c0830152611d788187611c94565b9050611d8760e0830186611ceb565b611d95610100830185611ceb565b611da3610120830184611ccd565b9b9a5050505050505050505050565b600082825260208201905092915050565b6000611dce826117ac565b611dd88185611db2565b935083602082028501611dea856117c8565b8060005b85811015611e265784840389528151611e0785826117d8565b9450611e12836117ec565b925060208a01995050600181019050611dee565b50829750879550505050505092915050565b60006020820190508181036000830152611e528184611dc3565b905092915050565b600067ffffffffffffffff821115611e7557611e74611a24565b5b611e7e82611721565b9050602081019050919050565b6000611e9e611e9984611e5a565b611a84565b905082815260208101848484011115611eba57611eb9611a1f565b5b611ec5848285611ad0565b509392505050565b600082601f830112611ee257611ee1611a1a565b5b8135611ef2848260208601611e8b565b91505092915050565b600060208284031215611f1157611f1061166e565b5b600082013567ffffffffffffffff811115611f2f57611f2e611673565b5b611f3b84828501611ecd565b91505092915050565b6000602082019050611f596000830184611cdc565b92915050565b600067ffffffffffffffff821115611f7a57611f79611a24565b5b602082029050602081019050919050565b600080fd5b6000611fa3611f9e84611f5f565b611a84565b90508083825260208201905060208402830185811115611fc657611fc5611f8b565b5b835b8181101561200d57803567ffffffffffffffff811115611feb57611fea611a1a565b5b808601611ff88982611b21565b85526020850194505050602081019050611fc8565b5050509392505050565b600082601f83011261202c5761202b611a1a565b5b813561203c848260208601611f90565b91505092915050565b6000806000806080858703121561205f5761205e61166e565b5b600085013567ffffffffffffffff81111561207d5761207c611673565b5b61208987828801611b21565b945050602085013567ffffffffffffffff8111156120aa576120a9611673565b5b6120b687828801611b21565b935050604085013567ffffffffffffffff8111156120d7576120d6611673565b5b6120e387828801612017565b925050606085013567ffffffffffffffff81111561210457612103611673565b5b61211087828801611ecd565b91505092959194509250565b60006020820190506121316000830184611ceb565b92915050565b7f496e76616c696420706170657220494400000000000000000000000000000000600082015250565b600061216d601083611c83565b915061217882612137565b602082019050919050565b6000602082019050818103600083015261219c81612160565b9050919050565b7f4e487b7100000000000000000000000000000000000000000000000000000000600052602260045260246000fd5b600060028204905060018216806121ea57607f821691505b6020821081036121fd576121fc6121a3565b5b50919050565b7f506170657220616c7265616479207363686564756c6564000000000000000000600082015250565b6000612239601783611c83565b915061224482612203565b602082019050919050565b600060208201905081810360008301526122688161222c565b9050919050565b7f556e6c6f636b2074696d65206d75737420626520696e20667574757265000000600082015250565b60006122a5601d83611c83565b91506122b08261226f565b602082019050919050565b600060208201905081810360008301526122d481612298565b9050919050565b7f526f6f6d206e756d626572207265717569726564000000000000000000000000600082015250565b6000612311601483611c83565b915061231c826122db565b602082019050919050565b6000602082019050818103600083015261234081612304565b9050919050565b60008190508160005260206000209050919050565b60006020601f8301049050919050565b600082821b905092915050565b6000600883026123a97fffffffffffffffffffffffffffffffffffffffffffffffffffffffffffffffff8261236c565b6123b3868361236c565b95508019841693508086168417925050509392505050565b6000819050919050565b60006123f06123eb6123e684611678565b6123cb565b611678565b9050919050565b6000819050919050565b61240a836123d5565b61241e612416826123f7565b848454612379565b825550505050565b600090565b612433612426565b61243e818484612401565b505050565b5b818110156124625761245760008261242b565b600181019050612444565b5050565b601f8211156124a75761247881612347565b6124818461235c565b81016020851015612490578190505b6124a461249c8561235c565b830182612443565b50505b505050565b600082821c905092915050565b60006124ca600019846008026124ac565b1980831691505092915050565b60006124e383836124b9565b9150826002028217905092915050565b6124fc826116db565b67ffffffffffffffff81111561251557612514611a24565b5b61251f82546121d2565b61252a828285612466565b600060209050601f83116001811461255d576000841561254b578287015190505b61255585826124d7565b8655506125bd565b601f19841661256b86612347565b60005b828110156125935784890151825560018201915060208501945060208101905061256e565b868310156125b057848901516125ac601f8916826124b9565b8355505b6001600288020188555050505b505050505050565b60006040820190506125da6000830185611cdc565b81810360208301526125ec8184611c94565b90509392505050565b7f5061706572206e6f74207363686564756c656400000000000000000000000000600082015250565b600061262b601383611c83565b9150612636826125f5565b602082019050919050565b6000602082019050818103600083015261265a8161261e565b9050919050565b7f506170657220616c726561647920756e6c6f636b656400000000000000000000600082015250565b6000612697601683611c83565b91506126a282612661565b602082019050919050565b600060208201905081810360008301526126c68161268a565b9050919050565b7f546f6f206561726c7920746f20756e6c6f636b00000000000000000000000000600082015250565b6000612703601383611c83565b915061270e826126cd565b602082019050919050565b60006020820190508181036000830152612732816126f6565b9050919050565b60008154612746816121d2565b6127508186611c83565b9450600182166000811461276b5760018114612781576127b4565b60ff1983168652811515602002860193506127b4565b61278a85612347565b60005b838110156127ac5781548189015260018201915060208101905061278d565b808801955050505b50505092915050565b600060408201905081810360008301526127d78185612739565b90506127e66020830184611cdc565b9392505050565b7f5075626c6963206b657920726571756972656400000000000000000000000000600082015250565b6000612823601383611c83565b915061282e826127ed565b602082019050919050565b6000602082019050818103600083015261285281612816565b9050919050565b60008190508160005260206000209050919050565b601f8211156128af5761288081612859565b6128898461235c565b81016020851015612898578190505b6128ac6128a48561235c565b830182612443565b50505b505050565b6128bd8261186e565b67ffffffffffffffff8111156128d6576128d5611a24565b5b6128e082546121d2565b6128eb82828561286e565b600060209050601f83116001811461291e576000841561290c578287015190505b61291685826124d7565b86555061297e565b601f19841661292c86612859565b60005b828110156129545784890151825560018201915060208501945060208101905061292f565b86831015612971578489015161296d601f8916826124b9565b8355505b6001600288020188555050505b505050505050565b7f4578616d206e616d652072657175697265640000000000000000000000000000600082015250565b60006129bc601283611c83565b91506129c782612986565b602082019050919050565b600060208201905081810360008301526129eb816129af565b9050919050565b7f4174206c65617374206f6e652049504653204349442072657175697265640000600082015250565b6000612a28601e83611c83565b9150612a33826129f2565b602082019050919050565b60006020820190508181036000830152612a5781612a1b565b9050919050565b7f456e63727970746564206b657920726571756972656400000000000000000000600082015250565b6000612a94601683611c83565b9150612a9f82612a5e565b602082019050919050565b60006020820190508181036000830152612ac381612a87565b9050919050565b7f4e487b7100000000000000000000000000000000000000000000000000000000600052601160045260246000fd5b6000612b0482611678565b91507fffffffffffffffffffffffffffffffffffffffffffffffffffffffffffffffff8203612b3657612b35612aca565b5b600182019050919050565b60006040820190508181036000830152612b5b8185611c94565b9050612b6a6020830184611cdc565b939250505056fea2646970667358221220c13312b5385319416d13cd0d69822533f42062d281569ca08933a7d4a2a9817e64736f6c63430008140033",
  "linkReferences": {},
  "deployedLinkReferences": {}
}